:020000040800F2
:10000000C80800204501000803230008AD200008AF
:1000100001230008350400084929000800000000F9
:10002000000000000000000000000000CB240008D9
:10003000ED04000800000000C92400085D25000848
:100040005F0100085F0100085F0100085F01000810
:100050005F0100085F0100085F0100085F01000800
:100060005F0100085F0100085F0100085F010008F0
:100070005F0100085F0100085F0100085F010008E0
:100080005F0100085F0100085F0100085F010008D0
:100090003D2900085F0100085F0100085F010008BA
:1000A0005F010008C12500085F0100085F0100082A
:1000B000CD250008D9250008E52500085F010008C6
:1000C0005F0100085F0100085F0100085F01000890
:1000D0005F010008312900085F0100085F01000886
:1000E0005F0100085F0100085F0100085F01000870
:1000F0005F0100085F0100085F0100085F01000860
:100100005F0100085F0100085F0100085F0100084F
:100110005F0100085F0100085F0100085F0100083F
:100120005F0100085F0100085F0100085F0100082F
:10013000DFF80CD000F06CF900480047B52E00083D
:10014000C80800200648804706480047FEE7FEE74B
:10015000FEE7FEE7FEE7FEE7FEE7FEE7FEE7FEE777
:10016000BF25000831010008D2B201E000F8012BE0
:10017000491EFBD270470022F6E710B513460A4627
:1001800004461946FFF7F0FF204610BDF0B480EAA0
:100190000102D40F4200B2EB410F02D202460846E0
:1001A00011464A0042D0C30DDDB2C1F3C752AD1AA9
:1001B000202D35DAC1F3160141F4000204B1524298
:1001C000C5F1200602FA06F12A411044B3EBD05FD4
:1001D00023D0C4B1012DA0EBC35009DCF0BC4FF01B
:1001E000004202EAC352DBB200F5000000F0E1B8C1
:1001F000400000F1807000EBC350A0F1807040EA35
:10020000D170490009E0490841EAC071A0EBC35030
:1002100000F50000400800EBC350F0BC00F0C0B88F
:100220006142012202EB4101001BF6E7F0BC70477E
:1002300081F00041AAE780F00040A7E780EA0102D0
:1002400010B502F00043400022D04A001FD0010E3A
:1002500001EB1261C0F35600C2F3560240F40000F5
:1002600042F40002A0FB022000047F39140400D0F5
:10027000401C50EA124001D44000491EC2B20C0694
:1002800004EBD010401C4008802A02D003E000207C
:1002900010BD20F00100002900DA0020184310BD35
:1002A00030B480EA010202F0004530F0004221F053
:1002B000004013D090B1C30DD40DC2F31601C0F3AA
:1002C0001600E41A41F4000140F400027D3491422A
:1002D00001D3641C00E04900002C02DA30BC00208D
:1002E00070474FF400000023914201D3891A034361
:1002F00040084FEA4101F7D151B1914202D14FF08C
:10030000004105E002D24FF0010101E06FF0010170
:1003100003EBC450284430BC00F042B8420005D082
:10032000C0F3C7525242914201DC0020704700EBFB
:10033000C1507047C10F80EAE0700844CA07962395
:10034000002100F036B800F0004220F00040C10D5E
:10035000C0F3160040F400007F2901DA0020704746
:10036000962903DCC1F19601C84001E09639884026
:10037000002AF4D040427047002801DBC0F1004061
:10038000002901DBC1F1004181427047002801DBF7
:10039000C0F10040002901DBC1F1004188427047F3
:1003A0000029A8BF7047401C490008BF20F0010089
:1003B000704710B4B0FA80FC00FA0CF050EA010467
:1003C00004BF10BC704749B1CCF1200421FA04F4F9
:1003D00011FA0CF118BF012121430843A3EB0C01D2
:1003E000CB1D4FEA00614FEA102042BF002010BC35
:1003F000704700EBC35010440029A4BF10BC7047E5
:10040000401C490008BF20F0010010BC70470000EC
:10041000064C074D06E0E06840F0010394E8070051
:1004200098471034AC42F6D3FFF786FE58330008E5
:1004300078330008FEE7000038B50E4C4FF4007525
:1004400025600025A560E560082525610A4C050AA0
:1004500025706070080AA070E170100A2071627146
:10046000180AA071E3716B4622460249034800F066
:1004700052F838BDA40400206B0000207802002050
:1004800010B5C0EBC000012A05D0022A11D0032A02
:1004900017D0002010BD104A02EB800050F8210058
:1004A0000E49FFF7FDFEBDE810404FF07E51FFF70B
:1004B000BFBE094AC43202EB800050F8210008494F
:1004C00005E0084A02EB800050F821000649BDE82B
:1004D0001040FFF7E5BE00000C310008000020428C
:1004E0000000E143943200080000C040704772B63B
:1004F000FEE790F82020012A07D0022A05D0416AA1
:1005000041F48021416201207047006842690A433A
:10051000426100207047F0B590F820500468A4684C
:10052000012D05D0022D03D0416A41F4802153E012
:1005300014F0406F01D1E5004BD5C4F30164022CE7
:1005400003D9416A41F4000146E00125A5401D6040
:100550008D684FF4C0739DB1CE6835434E6845EA4F
:10056000C605066803EB0417F5514FF4C27507681A
:1005700005EB04150E697E51097D012905D009E0BE
:100580000E88CD6845EA4655EBE701684E5946F4BA
:1005900080764E511179D2F805504FF4C67641EA73
:1005A0000525016806EB04168D511178D2F801205B
:1005B0004FF4C47541EA0221026805EB041551515C
:1005C000006803EB0411425842F00102425000203F
:1005D000F0BD416A41F4001141620120F0BD00000C
:1005E00010B590F820300268012B07D0022B05D0FF
:1005F000416A41F480214162012010BDD2F800021D
:1006000040F00100C2F80002087D00F01F03012045
:100610009840D2F81C328343C2F81C32CB69B3B97C
:10062000D2F80C328343C2F80C328C894B6864F3E5
:100630001F434C6902EBC404C4F840320C890B68B8
:1006400064F31F434C6902EBC404C4F84432CB6921
:10065000012B16D1D2F80C320343C2F80C320C88AD
:100660004B6864F31F434C6902EBC404C4F8403286
:100670000C89CB6864F31F434C6902EBC404C4F8D3
:1006800044328B69002BD2F804320FD053EA0003B6
:10069000C2F804320B69002BD2F8143208D003439D
:1006A000C2F81432096A012904D008E08343EFE755
:1006B0008343F5E7D2F81C120143C2F81C12D2F8AA
:1006C000000220F00100C2F80002002010BD7047B7
:1006D00030B590F82040012C05D0022C03D0416A9F
:1006E00041F480215DE00468002955D02469A40705
:1006F00054D04FF4D874056804EB01142D5915F04B
:100700000405956005682D594ED0ED0855600568C3
:100710002C5904F00204D4604FF4DA74056804EB39
:1007200001142D5905F00F05156105682D59C5F304
:100730000725956105682C59240C54614FF4DC722F
:10074000046802EB0112A4581C700468A458240A1F
:100750005C700468A458240C9C700468A258120EA3
:10076000DA704FF4DE72046802EB0112A4581C71B7
:100770000468A458240A5C710468A458240C9C7171
:100780000468A258120EDA71006881B1016941F063
:1007900020010161002030BDE468A8E7416A41F40E
:1007A00000114162012030BD6D0D1560AFE7C168D9
:1007B00041F02001C160EDE72DE9F05F05460068DA
:1007C00000244669D0F804908768D0F80CB0D0F8BF
:1007D00010A0D0F81880F10748D0F90714D00121F3
:1007E0008160B80703D5284600F03BFA0CE0780793
:1007F00002D54FF4006407E0380702D54FF4805467
:1008000002E0284600F02CFAF80516D529684FF4C6
:1008100080708860B80503D5284600F024FA0CE003
:10082000780502D544F4005407E0380502D544F4B5
:10083000804402E0284600F015FAF80316D529682E
:100840004FF480308860B80303D5284600F00DFAD5
:100850000CE0780302D544F4004407E0380302D5E5
:1008600044F4803402E0284600F0FEF9300707D552
:100870005FEACB6004D52968102044F40074C86096
:1008800070074FF0080707D55FEA0B7004D528689A
:10089000C760284600F05AF9B00706D52868C06836
:1008A000800702D0284600F053F9700607D55FEAAA
:1008B000CA6004D52968102044F480640861B00639
:1008C00007D55FEA0A7004D528680761284600F05A
:1008D00097F9F00606D528680069800702D02846F7
:1008E00000F08FF9B00308D55FEAC96005D5296823
:1008F00010204860284600F085F9F00307D55FEA2C
:10090000097004D528684760284600F0AFF9300424
:1009100046D55FEA497040D5F00504D55FEAC87056
:1009200001D044F00104B00504D55FEA887001D518
:1009300044F00204700504D55FEA487001D544F024
:100940000404300529D518F0700F26D008F0700087
:10095000402815D006DC102809D020280AD03028DD
:1009600016D10AE050280ED0602811D10EE044F0D4
:1009700008040DE044F010040AE044F0200407E00D
:1009800044F0400404E044F0800401E044F4807446
:100990002868816921F0700181612968042048601C
:1009A000002C05D0686A204368622846FFF78FFE56
:1009B000BDE8F09F70B5040003D094F8200010B19A
:1009C00004E0012070BD204600F082F82068016834
:1009D00041F00101016000F00BFB0546052604E033
:1009E00000F006FB401B0A2811D820684068C007A9
:1009F000F6D02068016821F00201016000F0F8FAE9
:100A000005460BE000F0F4FA401B0A2806D9606A9C
:100A100040F40030606284F82060D2E720684068CB
:100A20008007EFD4207E0128206801683DD021F0A6
:100A300080010160607E01282068016838D021F0C3
:100A400040010160A07E01282068016833D021F0B8
:100A500020010160E07E0128206801682ED041F06D
:100A600010010160207F01282068016829D021F051
:100A700008010160607F01282068016824D021F00E
:100A800004010160D4E902010843D4E904121143CE
:100A900008436168491E08432168C86100206062FC
:100AA000012084F82000002070BD41F08001C0E7E3
:100AB00041F04001C5E741F02001CAE721F01001F3
:100AC000CFE741F00801D4E741F00401D9E7000085
:100AD00010B586B000210091019102910391006848
:100AE000174988422AD11748C16941F00071C16194
:100AF000C16901F000710491816941F004018161D3
:100B00008069114C00F0040004904FF400600090E4
:100B10006946204600F066F9A0140090022001907A
:100B2000032003906946204600F05CF9002211463C
:100B3000142000F0C7FA142000F0B6FA06B010BD79
:100B400000640040001002400008014070470000AF
:100B500030B58BB001AB03AA0021FFF7B9FD0398B4
:100B6000A0F50070013805D0012803D0022801D07B
:100B7000032832D10398204D401EC0B21F4C28706C
:100B800000EB800104EBC100426A322A05D2BDF8B5
:100B9000042052BA24F831204281426A322A34F8C1
:100BA00031200281BDF8042052BA24F83120BDF86A
:100BB000061049BA4180BDF8081049BA81809DF8F5
:100BC0000A1081710BD002F053F9287800EB8000F5
:100BD00004EBC000416A491C41620BB030BD02F019
:100BE00047F9287800EB800004EBC00042890169D6
:100BF000891A0161E9E700006A000020040400206E
:100C0000704770477047000070B5044690F82000A8
:100C1000012804D0606A40F40020606218E00220DD
:100C200084F820002068016821F00101016000F0D3
:100C3000DFF905460EE000BF00F0DAF9401B0A2894
:100C400008D9606A40F400306062052084F8200012
:100C5000012070BD20684068C007EDD1606270BDA2
:100C6000704770477047704770477047704710B5BE
:100C700090F821100022022905D00421816380F818
:100C80002020012010BD01680B6823F00E030B60CB
:100C900001680B6823F001030B6090F84030C46BCF
:100CA000012101FA03F3636080F8211080F820200D
:100CB000104610BD2DE9F05F90F8211000240229A4
:100CC00003D004218163012485E001680A6822F0D1
:100CD0000E020A6001680A6822F001020A603F4EB3
:100CE0003E4FB215DFF8F4C0DFF8F090DFF8ECA06B
:100CF000DFF8E8B0DFF8E4E00168783F130115029F
:100D0000ACF1640CA9F15009AAF13C0AABF1280B33
:100D1000AEF1140E4FF48018B14227D9B9420ED06B
:100D2000614512D049451DD0514518D0594518D0BC
:100D3000714501D1424615E0294EB14201D101224F
:100D400010E0274E1436B14201D110220AE0244EA1
:100D50002836B14206D0224A3C32914201D11A468D
:100D600000E02A461E49091F0A602BE0B94213D051
:100D7000614517D0494522D051451DD059451DD058
:100D8000714501D142461AE0B14202D14FF0807262
:100D900015E0134EB14201D1012210E0104E14367D
:100DA000B14201D110220AE00D4E2836B14206D0E0
:100DB0000B4A3C32914201D11A4600E02A460749CB
:100DC00080394A60012180F82110002180F820102C
:100DD000416B01B188472046BDE8F09F800002408A
:100DE000080402402DE9F84FDFF8C891002409F10A
:100DF000040A0AF1040B23460F270BF1040ED1E07D
:100E00000125A54006EA0502AA4276D1DFF8A8C16D
:100E10004E68A6EB0C0866452BD00DDC032E34D0B3
:100E200005DC36B3012E19D0022E2FD11BE0112E76
:100E300016D0122E2AD119E0B8F5881F19D006DC79
:100E4000B8F5803F15D0B8F5801F1FD111E0B8F577
:100E5000001F0ED0B8F5041F18D10AE0CB6815E0CA
:100E6000CB681B1D12E0CB6808330FE0CB680C3356
:100E70000CE08B682BB1012B4FF0080303D04561C8
:100E800004E0042302E0056100E00023FF2A01D80A
:100E9000064601E000F104064FEA840501D9A5F1F8
:100EA0002005D6F8008007FA05FC28EA0C0803FAAA
:100EB00005F548EA0508C6F800804D68ED0070D5D4
:100EC0003E4DAE6946F00106AE61AD6924F0030601
:100ED00005F0010500953A4D06EB050CDCF80850CD
:100EE000A607360F07FA06F825EA0805DFF8D480CA
:100EF000404503D14FF0000825E052E0DFF8C880FC
:100F0000404502D14FF001081DE0DFF8C0804045A8
:100F100002D14FF0020816E0DFF8B480404502D15C
:100F20004FF003080FE0DFF8AC80404502D14FF0EE
:100F3000040808E0DFF8A080404502D14FF0050822
:100F400001E04FF0060808FA06F848EA0508CCF870
:100F500008804D68D9F80060ED034D4601D5164371
:100F600000E096432E604D68DAF80060AD03554608
:100F700001D5164300E096432E604D68DBF8006013
:100F8000ED025D4601D5164300E096432E604D68A4
:100F9000DEF80060AD02754601D5164300E09643C9
:100FA0002E60641C0A681646E2407FF429AFBDE853
:100FB000F88F0000000401400000111000100240F2
:100FC0000000014000080140000C014000100140F9
:100FD0000014014000180140001C014080680840D6
:100FE00000D0012070470AB1016170470904FBE796
:100FF000014880687047000058000020024881685E
:10100000027811448160704758000020074810B5ED
:10101000016841F010010160032000F073F8002026
:1010200000F006F800F024F8002010BD0020024077
:1010300070B50D4D04464FF47A712878B1FBF0F08D
:101040000A490968B1FBF0F000F0EAFA48B9102C3F
:1010500007D200222146501E00F034F800206C60B8
:1010600070BD012070BD0000580000206400002009
:101070000B4808B5816941F001018161816901F086
:1010800001010091C16941F08051C161C06900F066
:10109000805000900348416821F0E061416008BD44
:1010A0000010024000000140002809DB00F01F0290
:1010B000012191404009800000F1E020C0F80011BA
:1010C00070470000F0B40E4B1B680C46C3F30223BC
:1010D000C3F10705042D00D90425191D072901D2E4
:1010E000002300E0DB1E012606FA05F1491E21401F
:1010F00099409E40761E16403143F0BC01F02EBC54
:101100000CED00E0064900F0070208684FF6FF0307
:10111000184040EA0220034A10430860704700006C
:101120000CED00E00000FA052DE9F0470F46050040
:1011300061D0434E306800F00700B84209D23068F1
:1011400020F0070038433060306800F00700B842F4
:1011500051D128683B4C810712D5400703D5606800
:1011600040F4E06060602878000703D5606840F4D0
:10117000605060606068A96820F0F000084360601B
:101180002878C00728D06868012810D02168022874
:1011900010D0890700292EDA616821F0030101438C
:1011A0006160FFF725FF804641F288390DE0216834
:1011B0008903EFE78901EDE7FFF71AFFA0EB0801CC
:1011C000494502D90320BDE8F0876068696800F0EE
:1011D0000C00B0EB810FEFD1306800F00700B8428F
:1011E0000BD9306820F0070038433060306800F0D9
:1011F0000700B84201D00120E5E72878400705D56F
:101200006068E96820F4E0600843606028780007BF
:1012100006D56068296920F4605040EAC10060602A
:1012200000F038F86168084AC1F30311515CC84006
:101230000649086006480068FFF7FAFE0020C2E78A
:101240000020024000100240F4300008640000203A
:101250005C0000200448054900684968044AC1F35D
:101260000221515CC8407047640000200010024019
:10127000043100080448054900684968044AC1F37C
:10128000C221515CC8407047640000200010024039
:101290000431000812A185B00FC98DE80F0014A019
:1012A000144A006804905168134801F00C03042BA1
:1012B00010D0082B0ED1C1F38343C9031DF80300DE
:1012C0000AD5516804AAC1F34041515C0A4A50430F
:1012D000B0FBF1F005B0704708494843FAE7000059
:1012E00002030405060708090A0B0C0D0E0F101067
:1012F000010200000010024000127A0000093D00C7
:101300002DE9F84F040070D02078C04DC00749D0B7
:101310006868C0F38100012807D06868C0F38100C5
:10132000022809D16868C00306D52868800339D52A
:1013300060680028E7D035E06068B0F5803F0BD0EA
:1013400010B1B0F5A02F11D0286820F480302860AB
:10135000286820F4802002E0286840F4803028606B
:10136000606890B1FFF744FE06460AE0286840F442
:1013700080202860F0E700BFFFF73AFE801B64285A
:1013800073D828688003F7D50CE0FFF731FE0646D6
:1013900005E000BFFFF72CFE801B6428F0D828680A
:1013A0008003F7D420789A4E80074FF001094FF060
:1013B000000839D5686810F00C0F07D06868C0F3D2
:1013C0008100022809D16868C00306D42868800714
:1013D00014D52069012808D110E02069B0B1C6F801
:1013E0000090FFF705FE074605E00AE1FFF700FE63
:1013F000C01B0228C4D828688007F7D5286861690F
:1014000020F0F80040EAC10028600DE0C6F8008036
:10141000FFF7EEFD074604E0FFF7EAFDC01B0228D8
:1014200023D828688007F7D4207800072CD579487E
:10143000A169D9B1C0F80090FFF7DAFD074604E0D2
:10144000FFF7D6FDC01B02280FD8686A8007F7D5C2
:1014500071484FF4FA510068B0FBF1F0009000BF02
:101460000098411E0091FAD20EE080E0C0F80080A2
:10147000FFF7BEFD074604E0FFF7BAFDC01B0228D8
:1014800075D8686A8007F7D42078400760D5E86986
:101490000027C00008D4E86940F08050E861E8699E
:1014A000012700F0805000905C480168C90513D402
:1014B0000168834641F480710160FFF799FD82461F
:1014C00006E000BFFFF794FDA0EB0A0064284ED8A9
:1014D000DBF80000C005F5D5E06801280AD008B1A6
:1014E000052813D0286A20F001002862286A20F01D
:1014F000040002E0286A40F001002862E06841F23E
:10150000883B98B1FFF774FD82460BE0286A40F0F3
:1015100004002862EEE700BFFFF76AFDA0EB0A01B6
:1015200059455AD8286A8007F6D50CE0FFF760FDC8
:10153000824605E0FFF75CFDA0EB0A0159454CD857
:10154000286A8007F6D41FB1E86920F08050E8616E
:10155000E06988B36968C1F38101022944D0022897
:10156000C6F8608004D0FFF743FD044638E034E05D
:10157000FFF73EFD074604E0FFF73AFDC01B0228D7
:101580002BD828688001F7D4206AB0F5803F05D1B8
:101590006868A16820F4003008436860D4E9080155
:1015A0000843696821F4741108436860C6F86090C4
:1015B000FFF71EFD044606E025E000BFFFF718FD1B
:1015C000001B022809D828688001F7D51BE000BF5E
:1015D000FFF70EFD001B022802D90320BDE8F88F9B
:1015E00028688001F4D40EE00128F7D06868226AE8
:1015F00000F48031914204D1616A00F47010884295
:1016000001D00120EAE70020E8E7000000100240D6
:10161000000042428004424264000020007000400A
:1016200010B5401EB0F1807F01D3012010BD4FF0F6
:10163000E02460610F21601701F090F90020A061A3
:1016400007202061002010BD7047704770B590F8EA
:101650003C20012A2CD0012480F83C40022280F852
:101660003D2003685A689D6822F070060A6832437C
:101670005A60104B02689A420ED00F4B9A420BD020
:10168000B2F1804F08D00D4B9A4205D00C4B9A42D4
:1016900002D00C4B9A4204D1496825F080031943CB
:1016A000916080F83D40002180F83C10084670BDF4
:1016B000022070BD002C01400034014000040040B5
:1016C00000080040000C004010B5040003D094F85E
:1016D0003D0010B107E0012010BD002084F83C005F
:1016E000204600F01FF8022084F83D00211D2068EC
:1016F00000F07EFF012084F8460084F83E0084F864
:101700003F0084F8400084F8410084F8420084F8E7
:10171000430084F8440084F8450084F83D0000202C
:1017200010BD000008B5274A0168274891420ED134
:10173000816941F4006181618069042200F40060E4
:10174000009000211920FFF7BDFC192034E0B1F111
:10175000804F11D01D4A91421DD1C16941F0020153
:10176000C161C069022200F00200009000211D202A
:10177000FFF7A8FC1D201FE0C16941F00101C16114
:10178000C069012200F00100009000211C20FFF739
:1017900099FC1C2010E00E4A914211D1C16941F020
:1017A0000401C161C069032200F00400009000211F
:1017B0001E20FFF787FC1E20BDE80840FFF774BC21
:1017C00008BD0000002C0140001002400004004051
:1017D0000008004090F83D10012901D00120704719
:1017E000022180F83D100168CA6842F00102CA6017
:1017F00000680E4988420ED00D4988420BD0B0F1E6
:10180000804F08D00B49884205D00B49884202D04E
:101810000A49884204D1816801F00701062903D0F2
:10182000016841F00101016000207047002C014077
:10183000003401400004004000080040000C00405B
:1018400070B5044690F83C00012817D0012584F8B3
:101850003C50022084F83D002068826822F0770224
:1018600022F47F4282600868502830D00DDC2028A6
:101870004DD005DC98B310283BD148E0022070BD64
:10188000302844D0402834D139E0602828D070284E
:1018900006D0B0F5805F2CD0B0F5005F29D10AE00A
:1018A000CB68D1E90121206800F0E8FE206881685A
:1018B00041F0770109E0CB68D1E90121206800F00F
:1018C000DDFE2068816841F48041816011E0CA68D2
:1018D0004968206800F0E4FE5021206807E016E027
:1018E000CA684968206800F0ECFE6021206800F0BA
:1018F000CFFE84F83D50002084F83C0070BDCA68DB
:101900004968206800F0CCFE40212068EFE722689B
:1019100001461046EBE7704770B504460068016960
:101920004FF00005C943890715D4C168C943890729
:1019300011D4E91E016101202077206880698007A9
:10194000204602D0FFF7E7FF04E000F098F82046B9
:1019500000F096F8257720680169C943490717D434
:10196000C168C943490713D46FF004010161022023
:1019700020772068806910F4407F204602D0FFF76E
:10198000CAFF04E000F07BF8204600F079F82577E4
:1019900020680169C943090716D4C168C94309070A
:1019A00012D46FF008010161042020772068C0691B
:1019B0008007204602D0FFF7AEFF04E000F05FF89A
:1019C000204600F05DF8257720680169C943C90603
:1019D00017D4C168C943C90613D46FF0100101615F
:1019E000082020772068C06910F4407F204602D08C
:1019F000FFF791FF04E000F042F8204600F040F8C5
:101A0000257720680169C943C90708D1C168C9435E
:101A1000C90704D1891E0161204600F033F820680F
:101A20000169C943090609D4C168C943090605D437
:101A30006FF0800101612046FFF706FE2068016912
:101A4000C943490609D4C168C943490605D46FF0A2
:101A500040010161204600F027F920680169C9436F
:101A600089060BD4C168C943890607D46FF02001E9
:101A700001612046BDE87040FFF7E7BD70BD7047CB
:101A8000704700002DE9F05F7E490746006809684D
:101A90007D4C7E4EDFF8F8817E4D4FF00309884281
:101AA00062D12179A5F14C0B01291ED1206BB0F92F
:101AB0000200FEF73FFC01465846226900F022FC76
:101AC000A079012811D110217348FFF787FA80B15E
:101AD000724820618246206BB0F90200FEF72AFCB2
:101AE00001465246584600F00DFC2079022802D0EB
:101AF0000FE0022020714FF0000AC4F810A0206B04
:101B0000B0F90200FEF716FC01465246584600F0B6
:101B1000F9FB6079012827D1606AB0FBF9F209FB73
:101B20001201401C606249B9206B0069FEF702FC9B
:101B300001465848E269983000F0E4FBD5F8BC1043
:101B4000B14202DDC5F8BC6003E0414501D9C5F8EA
:101B5000BC80206BB0F90200FEF7ECFB0146584652
:101B6000D5F8BC2000F0CEFB4D49386809688842A2
:101B700035D1207801280AD1A06AB0F90200FEF719
:101B8000D9FB01464348A268E43800F0BBFB60780B
:101B9000012824D1606AB0FBF9F209FB1201401C54
:101BA000606241B9A06A0069FEF7C4FB014639488A
:101BB000626900F0A7FB696AB14201DD6E6203E071
:101BC000414501D9C5F82480A06AB0F90200FEF7AA
:101BD000B1FB01462F486A6AE43800F093FB3149B3
:101BE00038680968884236D12A4FA078983F012882
:101BF00009D1E06AB0F90200FEF79CFB01463846C5
:101C0000E26800F07FFBE078012824D1606AB0FB35
:101C1000F9F209FB1201401C606249B9E06A0069EF
:101C2000FEF788FB01461B48A2694C3000F06AFBB6
:101C3000296FB14201DD2E6703E0414501D9C5F8A6
:101C40007080E06AB0F90200FEF774FB0146384686
:101C50002A6F00F057FB0F4CE43CD4F8BC00FEF7B1
:101C600072FB05B2206FFEF76EFB06B2606AFEF7EC
:101C70006AFB2A463146BDE8F05F00B20023FEF75A
:101C8000DBBB0000A00200200000002000409C45BB
:101C900000409CC594010020000801400000FAC3E8
:101CA000E8020020300300207047704770470000B2
:101CB000F8B5026804461068D168536910F00F0F38
:101CC0004FF0000554D003F0010601F4907737433C
:101CD0005FD0C20705D0CA0503D5226C42F00102CD
:101CE0002264420705D5DA0703D0226C42F00202D3
:101CF0002264820705D5DA0703D0226C42F0040281
:101D00002264020707D501F02002324303D0226C7F
:101D100042F008022264226C002A35D0800604D5E5
:101D2000880602D5204600F0FEFC20684069216C40
:101D3000C0F3801001F008010143204625D000F0D7
:101D4000DAFC2068416949061BD5416921F0400150
:101D50004161A06BA8B158494163A06BFEF7AAFF8F
:101D6000002811D0A06B416B01B0BDE8F0400847DE
:101D700083060ED58B060CD52046BDE8F84000F052
:101D8000D2BC2046FFF792FFF8BDFFF78FFF256416
:101D9000F8BD266B2023012E52D1C60650D5CE06A3
:101DA0004ED5106850680090506940062AD5A16B46
:101DB000086840680004000CEAD0A68D8642E7D986
:101DC000E0858869202818D0D06820F48070D06021
:101DD0002068416921F0010141612068416921F0D9
:101DE0004001416184F83E3025632068C16821F0DC
:101DF0001001C160A06BFEF73AFFA08DE18D401A83
:101E000081B219E0A08DE18D401A81B2E08D0028E9
:101E1000BED00029BCD0D06820F49070D06020687B
:101E2000426922F00102426184F83E302563206855
:101E3000C26822F01002C2602046FFF736FFF8BDEC
:101E400005062BD50D0629D594F83D002128F6D19D
:101E5000A068B0F5805F01D12069B0B1206A411C53
:101E60002162216800784860E08C401E0004000C6C
:101E7000E084E4D12068C16821F08001C16020685D
:101E8000C16841F04001C160F8BD206A0088C0F31C
:101E900008005060206A801C2062E5E74006F3D508
:101EA0004806F1D5D168204621F04001D16084F880
:101EB0003D3000F0FAF8F8BDE726000870B50400E0
:101EC00004D094F83D00002510B106E0012070BD5B
:101ED00084F83C50204600F023F8242084F83D008C
:101EE0002068C16821F40051C160204600F076FCF2
:101EF0002068016921F4904101612068416921F065
:101F00002A0141612068C16841F40051C160256423
:101F1000202084F83D0084F83E00002070BD0000C1
:101F200030B585B0002400940194029403940068B5
:101F3000184988422CD11848816941F48041816157
:101F4000816901F480410491816941F0040181615A
:101F50008069124D00F0040004904FF4007000906E
:101F6000022001900320039069462846FEF73AFFBD
:101F70002815CDE90004694628460294FEF732FF91
:101F8000002201212520FFF79DF82520FFF78CF87E
:101F900005B030BD0038014000100240000801408B
:101FA00090F83E30202B0ED159B152B190F83C3010
:101FB000012B08D0012380F83C300023036300F09C
:101FC00069BC012070470220704700000068074983
:101FD000884209D1064806490122491E0078087046
:101FE000491C0448FFF7DCBF70470000003801407F
:101FF00069000020C00300202DE9F843044690F852
:102000003D001F4616460D4620284CD1C5B1BEB135
:1020100094F83C00012846D0012084F83C004FF0A1
:102020000008C4F84080212084F83D00FEF7E0FF5E
:10203000A6848146E684A068B0F5805F03D004E002
:102040000120BDE8F883206928B12E465FF0000525
:1020500084F83C800EE00026FAE78021204600F05C
:1020600034FCA0B9AEB116F8010B21684860E08CD1
:10207000401EE084E08C4B464FF0000200970028A1
:10208000EBD14FF04001204600F01FFC30B103209F
:10209000D7E735F8020BC0F30800E6E7202084F804
:1020A0003D000020CDE70220CBE77047FEE70000AF
:1020B0000F4810B50D4901600421416000214FF423
:1020C00080228160C0E90312D200426101760122C0
:1020D00042768276C17601774177FEF76BFC08B1D4
:1020E000FEF705FABDE8104000F068BC006400404F
:1020F00078020020094808B5816941F00401816136
:10210000816901F004010091816941F00801816158
:10211000806900F00800009008BD00000010024037
:1021200010B586B0002417480094019402940394DB
:1021300004941349059401604721C0E9011440F259
:10214000E731C0E9031444618461FFF7BDFA08B1C7
:10215000FEF7CDF94FF48050009069460948FFF72B
:102160006FFB08B1FEF7C3F9049404A90548059470
:10217000FFF76CFA002801D0FEF7B9F906B010BDE0
:10218000002C0140A002002010B586B000241648A3
:10219000009401940294039404944FF080410594B8
:1021A00001604721C0E9011440F2E731C0E903149E
:1021B0008461FFF789FA08B1FEF799F94FF480506E
:1021C000009069460848FFF73BFB08B1FEF78FF91E
:1021D000049404A904480594FFF738FA002801D0B4
:1021E000FEF785F906B010BDE802002010B586B0F4
:1021F0000024174800940194029403940494134912
:10220000059401604721C0E9011440F2E731C0E9BB
:1022100003148461FFF758FA08B1FEF768F94FF428
:102220008050009069460A48FFF70AFB08B1FEF7A4
:102230005EF9049404A906480594FFF707FA0028FC
:1022400001D0FEF754F906B010BD000000040040B4
:102250003003002010B586B0002417480094019484
:102260000294039404941349059401604721C0E942
:10227000011440F2E731C0E903148461FFF724FA46
:1022800008B1FEF734F94FF48050009069460A48CF
:10229000FFF7D6FA08B1FEF72AF9049404A9064814
:1022A0000594FFF7D3F9002801D0FEF720F906B016
:1022B00010BD000000080040780300200E4810B553
:1022C0000C4901604FF416514160002181600C22DD
:1022D000C160C0E904128161C161FFF7EFFD08B17F
:1022E000FEF705F9BDE81040012204490248FFF756
:1022F00057BE000000380140C003002069000020E4
:10230000FEE7FEE72DE9FE43040019D0606CA064EF
:10231000266C6664C4E907218146B0461046FDF785
:1023200087FF054631462064FDF782FF06460246D8
:102330006060207838B1012830D0022866D02BE0C8
:102340000020BDE8FE832946A068FDF777FFA06264
:102350002946E068FDF772FFE16AFDF717FF0546C1
:10236000E062A06BE063606B3146C4E90D602069F8
:10237000FDF764FF20632846A1697BE0A06980F037
:102380000040E062D4E90A01FDF700FF216B2EE076
:10239000606980F000406062606AD2E73046A16800
:1023A000FDF74CFF0746A0622946E068FDF746FFAF
:1023B0000646E062A06BE063606BA06301214046CB
:1023C000FDF7ACFF2946FDF736FF4946FDF7DEFE77
:1023D000014660632069FDF731FF05462063314601
:1023E0003846FDF7D3FE2946FDF7D0FE616AFDF7BA
:1023F000CDFE60626169FDF7C9FF6069CBD380F0F3
:102400000040616AFDF7C2FFC6D2C1E729466846AF
:1024100000F0FCFA1D48DDE90171009D0560C0E98E
:1024200001712946A068FDF7B1FE266C3146FDF723
:1024300005FFA0623946E068FDF7A8FE3146FDF7CA
:10244000FDFEE16AFDF7A2FE0746E062A06BE063D5
:10245000606BA0633046616CFDF7EAFE0646606380
:1024600029462069FDF792FE3146FDF7E7FE20631D
:102470003846A169FDF78AFFA06982D380F0004049
:10248000E16AFDF783FFBFF47DAF77E7BC0400206E
:1024900010B50028029C16D0002A14D001701168D3
:1024A00081605168C16000F1100C91688CE81A00DD
:1024B0000021C1638163416341620163C162816242
:1024C00081644164016410BD704770472DE9F0419B
:1024D00086B00020019002901D48816941F00401FE
:1024E0008161816901F004010491816941F0080171
:1024F00081618069DFF85C8000F0080004901020A2
:1025000003250090694603954046FEF76BFC0124C5
:10251000AE03CDE90064104F69463846CDE9024567
:10252000FEF760FC002231463846FEF75CFD2602CD
:10253000CDE9006469464046CDE90245FEF752FC0C
:10254000002231464046FEF74EFD06B0BDE8F08160
:102550000010024000080140000C0140FEF74EBD93
:1025600030B58FB028216846FDF705FE14210AA872
:10257000FDF701FE01210804CDE9001000240294BA
:1025800002250491CDE907504FF4E0100990684608
:10259000FEF7B6FE08B172B6FEE70F20CDE90A05D8
:1025A0004FF48060CDE90C4002210AA80E94FEF79A
:1025B000BBFD002801D072B6FEE70FB030BD7047FA
:1025C0000148FFF7A9B90000A00200200148FFF769
:1025D000A3B90000E80200200148FFF79DB9000000
:1025E000300300200148FFF797B90000780300206E
:1025F000F0B502681C4B1D4D1D4E1E4F1E4C4FF07A
:10260000804C984209D0A04207D0604505D0A8422E
:1026100003D0B04201D0B84204D122F0700E4A6813
:1026200042EA0E02984209D0A04207D0604505D088
:10263000A84203D0B04201D0B84203D122F4407581
:10264000CA682A434D6922F080022A4302608A68E0
:10265000C2620A688262984201D0A04201D109692F
:10266000016301214161F0BD002C014000040040E4
:1026700000080040000C00400034014010B58468A0
:1026800042EA032224F47F440A432243826010BDBD
:10269000826822F070020A4342F0070181607047AD
:1026A00010B5036A046A24F001040462846924F00A
:1026B000F00444EA021423F00A020A43846102622D
:1026C00010BD10B5036A23F0100303628369046A26
:1026D00023F4704343EA023224F0A00343EA0111D9
:1026E0008261016210BD10B5406A0021C185C184BC
:1026F000FFF7DCFA10BD0168CA6822F49072CA6064
:1027000001684A6922F001024A61016B012904D182
:102710000168CA6822F01002CA60202180F83E10C9
:1027200000210163704708B590F83E10222901D0BE
:10273000022008BD82684FF480539A4201D101699A
:1027400021B1816A9A421BD04AB10AE00268816ACB
:102750005268C2F308020A80816A891C08E0026993
:1027600072B10268526802F07F020A70816A491CE5
:102770008162C18D491E0904090CC18503D019E08D
:1027800002685268F1E70168CA6822F02002CA6054
:102790000168CA6822F48072CA6001684A6922F03E
:1027A00001024A61202180F83E10016B012903D00B
:1027B000FFF70CFC002008BD002101630168CA6816
:1027C00022F01002CA6001680A68D20602D50A68BF
:1027D00049680091818DFFF768FAEBE770B5044610
:1027E00000680169E26821F44051114301612169E7
:1027F000A0680843616908432168CA6841F20C6314
:102800009A430243CA6020684169A26921F4407179
:10281000114341611E492068884202D1FEF72AFD1A
:1028200001E0FEF717FD00EBC00101EB001260684C
:1028300064218000B2FBF0F3B3FBF1F36FF01806F4
:102840007343B2FBF0F5B2FBF0F605EB83053223E0
:1028500003EB0515B5FBF1F5B6FBF1F605F0F00558
:1028600005EB0615B2FBF0F6B2FBF0F0B0FBF1F0B1
:102870006FF01802504306EB800003EB0010B0FB32
:10288000F1F0216800F00F002844886070BD00005E
:102890000038014081628285C285002101642222C4
:1028A00080F83E2080F83C100168CA6842F48072CB
:1028B000CA6001684A6942F001024A610068C16861
:1028C00041F02001C160002070472DE9F041984699
:1028D00017460E460446069D1DE0681C1BD02DB110
:1028E000FEF786FBA0EB0800A84214D92068C16857
:1028F00021F4D071C1602068416921F0010141617A
:10290000202084F83D0084F83E00002084F83C003C
:102910000320BDE8F0812068006836EA000004D09A
:102920000020B842D9D00020F3E70120F9E70000E9
:102930000148FFF7BDB90000C00300200148FDF7C2
:102940003BBF000078020020FEE70000014A024978
:1029500000F023B8F5290008AC0000200907090E93
:10296000002804DB00F1E02080F80014704700F03C
:102970000F0000F1E02080F8141D704702E008C845
:10298000121F08C1002AFAD170477047002001E0E9
:1029900001C1121F002AFBD170472DE9F0411646F4
:1029A0000F460446002503E03946B047641C6D1C01
:1029B00020780028F8D12846BDE8F08100B58BB01A
:1029C00000200121CDE906010891009001900290BC
:1029D00003900590049069460548FDF701FE044800
:1029E000FEF712F902210248FDF783FD0BB000BD8E
:1029F0007802002013B54FF47A7301226946024829
:102A0000FFF7FAFA00981CBDC00300202DE9F74F2C
:102A1000FF4C884686B004F11C054FF07E564046B8
:102A20002168FDF7A9FC04D24FF00009344648465E
:102A3000A9E040462168FDF7A9FC16D84046616828
:102A4000FDF79AFC11D2D4E900173846FDF7F0FBE8
:102A5000044641463846FDF7EBFB2146FDF720FCD6
:102A600004464FF0000901208DE040466168FDF703
:102A70008DFC16D84046A168FDF77EFC11D2D4E942
:102A800001173846FDF7D4FB044641463846FDF7AA
:102A9000CFFB2146FDF704FC04464FF0010902205C
:102AA00071E04046A168FDF771FC16D84046E16828
:102AB000FDF762FC11D2D4E902173846FDF7B8FBE6
:102AC000044641463846FDF7B3FB2146FDF7E8FBD7
:102AD00004464FF00209032055E04046E168FDF747
:102AE00055FC16D840462169FDF746FC11D2D4E9C1
:102AF00003173846FDF79CFB044641463846FDF770
:102B000097FB2146FDF7CCFB04464FF00309042058
:102B100039E040462169FDF739FC16D84046616925
:102B2000FDF72AFC11D2D4E904173846FDF780FBE3
:102B3000044641463846FDF77BFB2146FDF7B0FBD6
:102B400004464FF0040905201DE040466169FDF789
:102B50001DFC14D84046A169FDF70EFC0FD2D4E944
:102B600005173846FDF764FB044641463846FDF735
:102B70005FFB2146FDF794FB0446052001E0344647
:102B800006208146062080462146B2463046FDF7A3
:102B90004FFB834629680898FDF7EEFB03D2002718
:102BA00055463E46A3E029680898FDF7EFFB15D887
:102BB00069680898FDF7E0FB10D2D5E900163046A9
:102BC000FDF736FB054630460899FDF731FB2946EF
:102BD000FDF766FB00270546012688E0696808982E
:102BE000FDF7D4FB15D8A9680898FDF7C5FB10D2EE
:102BF000D5E901163046FDF71BFB0546304608991E
:102C0000FDF716FB2946FDF74BFB0127054602267B
:102C10006DE0A9680898FDF7B9FB15D8E968089830
:102C2000FDF7AAFB10D2D5E902163046FDF700FBEE
:102C3000054630460899FDF7FBFA2946FDF730FBBB
:102C400002270546032652E0E9680898FDF79EFB37
:102C500015D829690898FDF78FFB10D2D5E903161E
:102C60003046FDF7E5FA054630460899FDF7E0FAEB
:102C70002946FDF715FB03270546042637E0296999
:102C80000898FDF783FB15D869690898FDF774FB70
:102C900010D2D5E904163046FDF7CAFA054630468B
:102CA0000899FDF7C5FA2946FDF7FAFA0427054603
:102CB00005261CE069690898FDF768FB14D8A96926
:102CC0000898FDF759FB0FD2D5E905163046FDF7F8
:102CD000AFFA054630460899FDF7AAFA2946FDF7EE
:102CE000DFFA0546052701E0554606270626294650
:102CF0005046FDF79DFA8246012231464046FDF7D7
:102D0000BFFB009051465846FDF798FA0290009993
:102D1000FDF794FA0490012239464046FDF7B0FBD6
:102D2000009029465846FDF789FA03900099FDF76F
:102D300085FA8346012231464846FDF7A1FB009003
:102D400051462046FDF77AFA01900099FDF776FA90
:102D50008246012239464846FDF792FB05902946F6
:102D60002046FDF76BFA00900599FDF767FA51468A
:102D7000FDF70CFA5946FDF709FA0499FDF706FA32
:102D80000490022231464046FDF77AFB0146029844
:102D9000FDF754FA0546022239464046FDF770FB1E
:102DA00001460398FDF74AFA824602223146484618
:102DB000FDF766FB01460198FDF740FA0446022242
:102DC00039464846FDF75CFB01460098FDF736FAA8
:102DD0002146FDF7DBF95146FDF7D8F92946FDF705
:102DE000D5F98346032231464046FDF749FB0146AB
:102DF0000298FDF723FA8246032239464046FDF742
:102E00003FFB01460398FDF719FA0446032201E04F
:102E10007400002031464846FDF732FB0146019818
:102E2000FDF70CFA0546032239464846FDF728FB14
:102E300001460098FDF702FA2946FDF7A7F9214659
:102E4000FDF7A4F95146FDF7A1F9069B0246049847
:102E50009A60C3E9000B09B0BDE8F08F00F00300F1
:102E6000024900EB800001EBC00070470404002021
:102E700030B5038801895A1A8B4202D202F50051FB
:102E800001E0A2F50051002901DD0C4600E04C42B2
:102E9000002A01DD154600E05542AC4200DB114638
:102EA000026911440161CA1701EBD2410381491340
:102EB000C16030BD08B5FEF7A9F8FFF707FBFFF7C3
:102EC0004FFBFFF717F9FFF7F3F8FFF729F9FFF7C3
:102ED0005BF9FFF7F3F9FFF789F9FFF7BBF95F48F3
:102EE000FEF778FC5E48FEF775FC5E48FEF772FC64
:102EF0005D48FEF76FFCDFF878815C4DDFF874A168
:102F00005D4E012408F1E40904EB440000EB0417D2
:102F100008EB87005346594A00210095FFF7B8FA9D
:102F2000564A09EB87002B460C3200210096FFF72A
:102F3000AFFA641C032CE7DB504A534618320221D7
:102F40004B480095FFF7A4FA0020FFF787FF4B4C92
:102F5000343CA0620120FFF781FFE0620220FFF70E
:102F60007DFF474D4FF000094FF0010864272063B3
:102F700028780B28FCD2DFE800F0060716242B3156
:102F800039414D5C6A00F3E73E49A068884203DAA4
:102F9000216AFDF7FBF8A06084F800803AA000BF2A
:102FA000FFF7D4FC51E0C4F8089084F80080C4F81E
:102FB0000C9084F80280C4F81090484684F804808D
:102FC00004E084F80590404684F80480A0713CE059
:102FD00084F80690266184F8048036E084F8039033
:102FE0002D48E06084F802802CA0D9E784F8039093
:102FF0002F48E06084F802802EA0D1E73249A06813
:10300000884203DD216AFDF713F9A06084F800808F
:103010002EA0C5E7C4F8089084F80080C4F8189082
:1030200084F80380C4F81090C4F81C9084F80580DC
:103030000BE084F8009084F8019084F8029084F802
:10304000039084F8049084F805902F7090E723484B
:10305000206184F8048022A0A2E70000A0020020E2
:10306000E802002030030020780300200000FA442A
:10307000B000002000007A46000016443400002012
:103080006800002000401C45D0FDD7AAC7D0C6A4C8
:1030900028BCD3CBD929000000009643D6F7CFDF58
:1030A000B1A7BDF4BBFAB9B9BCD0BDF42100000092
:1030B0000080BBC4D6F7CFDFB1A7BDF4BBFAB9B966
:1030C000CBC9BFAA210000000000FA43D0FDD7AA57
:1030D000C7D0C6A428BCF5CBD9290A0000007A4481
:1030E000D6F7CFDFB1A7BDF4BBFAB9B9CDA3D6B936
:1030F00021000000000000000000000001020304A5
:103100000607080900000000010203040000F0C2E5
:103110000000F0C20000A0C20000A0C2000020C257
:1031200000000000000000000000F0C20000A0C28B
:103130000000A0C2000020C2000020C20000000069
:10314000000000000000F0C20000A0C2000020C289
:10315000000020C2000000000000204200002042C9
:103160000000A0C20000A0C2000020C200000000B9
:10317000000020420000A0420000A0420000A0C2C7
:10318000000020C200000000000020420000204299
:103190000000A0420000F04200000000000000001B
:1031A00000002042000020420000A0420000F04247
:1031B0000000F04200000000000000000000A042FB
:1031C0000000A0420000A0420000F0420000F042D7
:1031D0000000F0420000F0420000A0420000A042C7
:1031E0000000204200000000000000000000F0424B
:1031F0000000F0420000A0420000204200002042F7
:1032000000000000000020420000A0420000A04298
:103210000000A04200002042000000000000204208
:10322000000020420000A0420000A0420000204216
:1032300000000000000020420000A0420000A04268
:103240000000204200002042000000000000204258
:10325000000020420000A0420000F0420000204296
:1032600000000000000020420000A0420000A04238
:103270000000A0420000F04200000000000000003A
:103280000000A0420000A0420000A0420000F04266
:103290000000F0420000F0420000F0420000F04266
:1032A0000000F0C20000F0C2000020C2000020C2F6
:1032B0000000F0420000F0420000A0420000A0C266
:1032C00000000000000020420000A0420000F04288
:1032D0000000A0420000A042000020C20000A04266
:1032E0000000F0420000F04200000000000000007A
:1032F00000000000000000000000000000000000CE
:10330000000000000000F0420000F0420000A04277
:10331000000020C20000A0420000A0420000F042D5
:103320000000A04200002042000000000000A0C2F7
:103330000000A0420000F0420000F0420000F04215
:103340000000A04200002042000020420000204275
:103350000000A0420000F042783300080000002086
:10336000B00000007C29000828340008B0000020CC
:10337000180800008C290008000000000000000070
:10338000000000000000000000000000000000003D
:1033900000000000000000000000C8430000000022
:1033A0000000000000000000000000000000C0401D
:1033B0000AD7233CCDCCCC3D9A99993E0000000021
:1033C000000040400000A0400AD7233CCDCCCC3DBB
:1033D0000100000010000000000000000024F400C4
:1033E0000000000000000000000000000000F0C22B
:1033F0000000A0C2000020C2000000000000204227
:103400000000A0420000F042000070C2000020C294
:103410000000A0C1000000000000A0410000204208
:083420000000704200000000F2
:0400000508000131BD
:00000001FF
